:020000040800F2
:100000000050002009120008E1020008E302000885
:10001000E5020008E7020008E9020008000000000D
:10002000000000000000000000000000EB020008DB
:10003000ED02000800000000EF020008F1020008D5
:100040005112000851120008511200085112000804
:1000500051120008511200085112000851120008F4
:1000600051120008511200085112000851120008E4
:1000700051120008511200085112000851120008D4
:1000800051120008511200085112000851120008C4
:1000900051120008511200085112000851120008B4
:1000A00051120008511200085112000851120008A4
:1000B0005112000851120008511200085112000894
:1000C0005112000851120008511200085112000884
:1000D0005112000851120008511200085112000874
:1000E00051120008511200085112000800000000CF
:1000F0000000000000000000000000000000000000
:0C01000000000000000000005FF808F1A3
:10010C0010B5054C237833B9044B13B10448AFF345
:10011C0000800123237010BD4C040020000000005F
:10012C002014000808B5034B1BB103490348AFF377
:10013C00008008BD000000005004002020140008BE
:10014C002DE9F04188B0002404940594069407949A
:10015C002A4B9A6942F020029A619A6902F02002B5
:10016C000192019A9A6942F004029A619A6902F02A
:10017C0004020292029A9A6942F008029A619B69FF
:10018C0003F008030393039BDFF87480224648F2C4
:10019C006001404600F0C3FA1A4D2246C821284699
:1001AC0000F0BDFA48F2600304930126059606940C
:1001BC000227079704A9404600F098F908230493F6
:1001CC0005960694079704A9284600F08FF940235A
:1001DC000493059606940326079604A9284600F076
:1001EC0085F980230493112305930694079604A99B
:1001FC00284600F07BF908B0BDE8F0810010024001
:10020C0000080140000C014072B6FEE700B591B049
:10021C002822002106A801F03BF800230193029349
:10022C00039304930593012206924FF480330793B2
:10023C000A9202220D920E934FF4E0130F9306A82C
:10024C0000F08AFA80B90F23019302210291002356
:10025C0003934FF480620492059301A800F0AEFC66
:10026C0020B911B05DF804FBFFF7CEFFFFF7CCFF10
:10027C0008B500F0B9F8FFF7C9FFFFF761FF00F010
:10028C0037F800F067FE002000F00EFFFBE70000DF
:10029C0082B00E4B9A6942F001029A619A6902F09F
:1002AC0001020092009ADA6942F08052DA61DB694D
:1002BC0003F080530193019B054A536823F0E063DC
:1002CC0043F00073536002B0704700BF001002404F
:1002DC0000000140FEE7FEE7FEE7FEE7FEE77047A1
:1002EC007047704708B500F091F808BD70470000E2
:1002FC0008B50A480A4B03604FF4E133436000230E
:10030C008360C36003610C2242618361C36100F0AE
:10031C007BFD00B908BDFFF777FFFBE76804002001
:10032C000038014010B586B0002302930393049368
:10033C0005930268174B9A4201D006B010BD03F525
:10034C0058439A6942F480429A619A6902F4804255
:10035C000092009A9A6942F004029A619B6903F038
:10036C0004030193019B4FF4007302930223039344
:10037C0003230593084C02A9204600F0B7F84FF46C
:10038C008063029300230393049302A9204600F098
:10039C00ADF8D2E7003801400008014010B5044622
:1003AC000E4B18784FF47A73B3FBF0F30C4A1068C9
:1003BC00B0FBF3F000F086F868B90F2C01D90120DE
:1003CC000AE0002221464FF0FF3000F043F8054BC5
:1003DC001C60002000E0012010BD00BF04000020C4
:1003EC00000000200800002008B5074A136843F0FD
:1003FC0010031360032000F01BF80F20FFF7CEFF53
:10040C00FFF746FF002008BD00200240034A116898
:10041C00034B1B780B441360704700BFB0040020E3
:10042C0004000020014B1868704700BFB004002086
:10043C00074AD36823F4E0631B041B0C000200F48E
:10044C00E060034343F0BF6343F40033D360704771
:10045C0000ED00E000B5194BDB68C3F30223C3F1D8
:10046C00070CBCF1040F28BF4FF0040C03F1040E71
:10047C00BEF1060F18D9033B4FF0FF3E0EFA0CFCF1
:10048C0021EA0C0199400EFA03F322EA0303194303
:10049C0000280BDB0901C9B200F1604000F5614096
:1004AC0080F800135DF804FB0023E5E700F00F0073
:1004BC000901C9B2024B1954F4E700BF00ED00E08A
:1004CC0014ED00E00138B0F1807F0BD24FF0E02347
:1004DC005861054AF02182F8231000209861072208
:1004EC001A6170470120704700ED00E070B582B0D2
:1004FC000024A446A6E0804DAA4210D007D97F4D17
:10050C00AA420CD005F58035AA4208D013E0A5F517
:10051C008015AA4203D005F57025AA4207D18A6836
:10052C00002A58D0012A51D04361082403E0A5F5D4
:10053C008015AA42F3D0BEF1FF0F4ED80646BEF18D
:10054C00FF0F4CD84FEA8C0233680F25954023EAF5
:10055C00050304FA02F2134333604B6813F0805F17
:10056C006ED0674B9A6942F001029A619B6903F065
:10057C0001030193019B4FEA9C02951C614B53F8BC
:10058C0025600CF003039D000F23AB4026EA030605
:10059C005D4B984229D003F58063984200F08E8021
:1005AC0003F58063984200F08B8003F580639842DA
:1005BC0019D004231AE0CC68BDE7CC680434BAE740
:1005CC00CC680834B7E7CC680C34B4E70361082472
:1005DC00B1E70024AFE70424ADE7061DAFE7ACF1AB
:1005EC0008029200B0E7032300E00023AB40334342
:1005FC000232444D45F822304B6813F4801F61D011
:10060C00424A936843EA0E0393604B6813F4001F4D
:10061C005ED03E4AD36843EA0E03D3604B6813F4B2
:10062C00003F5BD0394A536843EA0E0353604B6872
:10063C0013F4803F58D0354A136843EA0E03136015
:10064C000CF1010C0A6832FA0CF353D0012303FAB3
:10065C000CF302EA030E33EA0202F1D14A68122AC1
:10066C003FF649AF122A3FF666AF01A555F822F0C6
:10067C002B050008C3050008CD050008DF050008A0
:10068C00430500084305000843050008430500081E
:10069C00430500084305000843050008430500080E
:1006AC0043050008430500084305000843050008FE
:1006BC0043050008C7050008D3050008012395E78A
:1006CC00022393E7114A936823EA0E0393609CE795
:1006DC000E4AD36823EA0E03D3609FE70B4A536894
:1006EC0023EA0E035360A2E7084A136823EA0E03B9
:1006FC001360A5E702B070BD00002210000031109D
:10070C0000100240000001400008014000040140BC
:10071C008368194201D001207047002070470AB14C
:10072C0001617047090401617047000082B0084BF9
:10073C001B68084AA2FB03235B0A00FB03F301932B
:10074C0000BF019B5A1E0192002BF9D102B07047D9
:10075C0000000020D34D6210002800F0F18170B52C
:10076C0082B00446036813F0010F2CD0994B5B68E0
:10077C0003F00C03042B1DD0964B5B6803F00C03A9
:10078C00082B12D06368B3F5803F41D0002B55D1B4
:10079C0003F1804303F504331A6822F480321A60A3
:1007AC001A6822F480221A6037E08A4B5B6813F4D3
:1007BC00803FE7D0874B1B6813F4003F03D063687E
:1007CC00002B00F0BF81236813F0020F75D0814B12
:1007DC005B6813F00C0F5FD07E4B5B6803F00C036F
:1007EC00082B54D02369002B00F08A807A4B01220D
:1007FC001A60FFF717FE0546764B1B6813F0020FC5
:10080C0075D1FFF70FFE401B0228F5D903209EE19E
:10081C00704A136843F480331360636843B3FFF783
:10082C0001FE05466B4B1B6813F4003FCBD1FFF761
:10083C00F9FD401B6428F5D9032088E1B3F5A02FFE
:10084C0009D0644B1A6822F480321A601A6822F4B8
:10085C0080221A60E1E703F18043A3F53C331A6868
:10086C0042F480221A601A6842F480321A60D4E78B
:10087C00FFF7D8FD0546574B1B6813F4003FA2D079
:10088C00FFF7D0FD401B6428F5D903205FE1514BE5
:10089C005B6813F4803FA5D14E4B1B6813F0020F1D
:1008AC0003D02369012B40F04F814A4A136823F08F
:1008BC00F803616943EAC1031360236813F0080F5E
:1008CC0033D0A369002B5CD0434B0122C3F88024A6
:1008DC00FFF7A8FD05463F4B5B6A13F0020F21D1D1
:1008EC00FFF7A0FD401B0228F5D903202FE1394A60
:1008FC00136823F0F803616943EAC1031360DCE772
:10090C00354B00221A60FFF78DFD0546314B1B68F5
:10091C0013F0020FD1D0FFF785FD401B0228F5D94B
:10092C00032014E10120FFF701FF236813F0040FEB
:10093C0000F09680274BDB6913F0805F34D1254B98
:10094C00DA6942F08052DA61DB6903F0805301937B
:10095C00019B0125214B1B6813F4807F26D0E36893
:10096C00012B3DD0002B53D103F1804303F504330D
:10097C001A6A22F001021A621A6A22F004021A623E
:10098C0033E0154B0022C3F88024FFF74BFD0546DE
:10099C00104B5B6A13F0020FC7D0FFF743FD401BEF
:1009AC000228F5D90320D2E00025D3E70B4A1368BF
:1009BC0043F480731360FFF735FD0646074B1B6845
:1009CC0013F4807FCBD1FFF72DFD801B6428F5D964
:1009DC000320BCE0001002400000424200700040C6
:1009EC005F4A136A43F001031362E36833B3FFF702
:1009FC0019FD06465A4B1B6A13F0020F2FD1FFF755
:100A0C0011FD801B41F288339842F3D903209EE0FC
:100A1C00052B09D0524B1A6A22F001021A621A6A8B
:100A2C0022F004021A62E0E74D4B1A6A42F004020B
:100A3C001A621A6A42F001021A62D6E7FFF7F2FC58
:100A4C000646474B1B6A13F0020F08D0FFF7EAFC6F
:100A5C00801B41F288339842F3D9032077E0E5B943
:100A6C00E369002B72D03E4A526802F00C02082A4D
:100A7C0056D0022B17D03B4B00221A66FFF7D2FC44
:100A8C000446374B1B6813F0007F47D0FFF7CAFCB6
:100A9C00001B0228F5D9032059E0314AD36923F011
:100AAC008053D361DCE72F4B00221A66FFF7BAFCA8
:100ABC0005462B4B1B6813F0007F06D0FFF7B2FCEA
:100ACC00401B0228F5D9032041E0236AB3F5803F8F
:100ADC001AD023494B6823F47413226A606A0243C8
:100AEC0013434B601F4B01221A66FFF79BFC044615
:100AFC001B4B1B6813F0007F0ED1FFF793FC001B00
:100B0C000228F5D9032022E0154A536823F4003358
:100B1C00A1680B435360DCE7002018E0002016E0CE
:100B2C00012B16D00E4B5B6803F48031226A914284
:100B3C0011D103F47013626A93420ED1002006E0C7
:100B4C0001207047012002E0012000E0002002B0EB
:100B5C0070BD0120FBE70120F9E70120F7E700BF9A
:100B6C0000100240000042420F4B5B6803F00C0285
:100B7C00082A01D00D487047C3F383420C49885CA6
:100B8C0013F4803F0BD0084B5B68C3F34043094A16
:100B9C00D35C064A02FB00F0B0FBF3F07047064B47
:100BAC0003FB00F0704700BF0010024000127A00F7
:100BBC00501400086014000800093D00002800F0E3
:100BCC00A08070B50D460446524B1B6803F007031A
:100BDC008B420BD24F4A136823F007030B4313606D
:100BEC00136803F007038B4240F08D80236813F0E9
:100BFC00020F17D013F0040F04D0474A536843F484
:100C0C00E0635360236813F0080F04D0424A536822
:100C1C0043F460535360404A536823F0F003A168D7
:100C2C000B435360236813F0010F31D06368012B21
:100C3C0020D0022B25D0384A126812F0020F64D053
:100C4C0035494A6822F0030213434B60FFF7EAFB75
:100C5C000646314B5B6803F00C036268B3EB820F02
:100C6C0016D0FFF7DFFB801B41F288339842F0D996
:100C7C00032045E0284A126812F4003FE0D101201D
:100C8C003EE0254A126812F0007FD9D1012037E0EE
:100C9C00204B1B6803F00703AB420AD91D4A1368AB
:100CAC0023F007032B431360136803F00703AB42D5
:100CBC002DD1236813F0040F06D0174A536823F480
:100CCC00E063E1680B435360236813F0080F07D00F
:100CDC00114A536823F46053216943EAC1035360FA
:100CEC00FFF742FF0C4B5B68C3F303130B4AD35C57
:100CFC00D8400B4B18600B4B1868FFF74FFB0020CC
:100D0C0070BD012070470120FAE70120F8E70120AF
:100D1C00F6E700BF00200240001002403814000823
:100D2C000000002008000020014B1868704700BF2D
:100D3C000000002008B5FFF7F7FF044B5B68C3F316
:100D4C000223034AD35CD84008BD00BF0010024008
:100D5C004814000808B5FFF7E7FF044B5B68C3F3C2
:100D6C00C223034AD35CD84008BD00BF0010024028
:100D7C004814000810B504460268136923F4405364
:100D8C00C1680B43136183680269134342691A43B8
:100D9C000168CB6823F4B05323F00C031343CB60EE
:100DAC000268536923F4407381690B4353610268F1
:100DBC00134B9A4220D0FFF7BDFF024602EB820292
:100DCC0002EB820263689B00B2FBF3F20D48A0FBBE
:100DDC0002314909642303FB11231B013233A0FBAD
:100DEC0003235B0903F0F00202EB011203F00F0383
:100DFC00216813448B6010BDFFF7ACFF0246DDE7A2
:100E0C00003801401F85EB5160B310B5044690F8D3
:100E1C00413013B3242384F841302268D36823F47F
:100E2C000053D3602046FFF7A5FF2268136923F413
:100E3C00904313612268536923F02A03536122689B
:100E4C00D36843F40053D36000206064202384F8FB
:100E5C00413084F84230606310BD80F84030FFF7B9
:100E6C0061FAD7E70120704738B504464368012082
:100E7C009847A3680120984723689847E3689847E8
:100E8C00054658B163680020984723689847E36883
:100E9C00984728B9A368984723689847284638BDCF
:100EAC000025FBE710B504468368002098472368AB
:100EBC00984763680020984723689847A3680120E7
:100ECC009847236898476368012098472368984798
:100EDC0010BD38B5044683680020984723689847AE
:100EEC0063680120984723689847A36801209847B6
:100EFC0023689847E368984728B90125A368002020
:100F0C009847284638BD0025F8E770B504460D46CD
:100F1C0008230CE06368002098476D00EDB223684D
:100F2C009847A368012098472368984733465A1E70
:100F3C00D6B25BB1A368002098472368984715F098
:100F4C00800FE7D0636801209847E6E7A36800208C
:100F5C00984770BD08B500F0F9F801224FF4004134
:100F6C000148FFF7DCFB08BD0008014070B50646E0
:100F7C000D460E4C2046FFF777FFC6212046FFF7A3
:100F8C00C4FF2046FFF7A5FF31462046FFF7BDFF03
:100F9C002046FFF79EFF29462046FFF7B6FF204666
:100FAC00FFF797FF2046FFF77DFF70BD0C00002078
:100FBC0008B519210120FFF7D9FF27210220FFF7DF
:100FCC00D5FF00210520FFF7D1FF00210720FFF7F7
:100FDC00CDFF08BD08B519210120FFF7C7FF272158
:100FEC000220FFF7C3FF00210520FFF7BFFF002100
:100FFC000720FFF7BBFF08BD08B519210120FFF73B
:10100C00B5FF27210220FFF7B1FF3F210520FFF795
:10101C00ADFF00210720FFF7A9FF08BD08B5192176
:10102C000120FFF7A3FF27210220FFF79FFF7F215D
:10103C000520FFF79BFF00210720FFF797FF08BD56
:10104C0008B519210120FFF791FF27210220FFF796
:10105C008DFF7F210520FFF789FF01210720FFF776
:10106C0085FF08BD08B519210120FFF77FFF272157
:10107C000220FFF77BFF7F210520FFF777FF03217D
:10108C000720FFF773FF08BD08B50D210120FFF7FE
:10109C006DFF00210320FFF769FF08BD08B50D2186
:1010AC000120FFF763FF08BD08B507281DD8DFE84E
:1010BC0000F004070A0D10131619FFF779FF08BD8D
:1010CC00FFF788FFFBE7FFF797FFF8E7FFF7A6FFAF
:1010DC00F5E7FFF7B5FFF2E7FFF7C4FFEFE7FFF720
:1010EC00D3FFECE7FFF7DAFFE9E7FFF7D7FFE6E717
:1010FC00F8B506464FF0E0239C69FFF793F90546D7
:10110C0006EBC606F700B4EBC60F0ED2FFF78AF952
:10111C00A842FBD0E41B04F58C3303F5A0734FF00D
:10112C00E02292699A42FAD8F8BDE41B4FF0E02312
:10113C009B69A342F8D9FFF775F9A842F6D0F3E7FB
:10114C0008B50A20FFF7D4FF08BD00002DE9F041D7
:10115C0086B0184B9A6942F008029A619B6903F0B9
:10116C0008030193019B40270297012503950495E1
:10117C004FF00308CDF814800F4C02A92046FFF75E
:10118C00B5F9802602961123039302230493CDF81C
:10119C00148002A92046FFF7A9F92A4639462046B1
:1011AC00FFF7BDFA2A4631462046FFF7B8FA06B0DB
:1011BC00BDE8F08100100240000C014008B5024669
:1011CC0080210248FFF7ABFA08BD00BF000C0140BC
:1011DC0008B5024640210248FFF7A1FA08BD00BF3E
:1011EC00000C014008B580210348FFF791FA003844
:1011FC0018BF012008BD00BF000C0140FFF776F8B6
:10120C000B480C490C4A002302E0D458C450043358
:10121C00C4188C42F9D3094A094C002301E013602D
:10122C000432A242FBD300F00FF8FFF721F870470D
:10123C00000000204C040020741400084C04002012
:10124C00B8040020FEE7000070B50D4E0D4D761B66
:10125C00B61006D0002455F8043B01349847A6423A
:10126C00F9D1094E094D00F0D5F8761BB61006D011
:10127C00002455F8043B01349847A642F9D170BDBF
:10128C00681400086814000870140008681400083A
:10129C00830730B548D0541E002A3FD00346CAB24B
:1012AC0001E0013C3AD303F8012B9D07F9D1032C43
:1012BC002DD9CDB245EA05250F2C45EA054536D981
:1012CC00A4F1100222F00F0C03F1200EE6444FEAB9
:1012DC00121C03F1100242E9045542E90255103286
:1012EC007245F8D10CF1010214F00C0F03EB021251
:1012FC0004F00F0C13D0ACF1040323F003030433FC
:10130C00134442F8045B9342FBD10CF003042CB160
:10131C00CAB21C4403F8012B9C42FBD130BD64467D
:10132C001346002CF4D1F9E703461446BFE71A46DE
:10133C00A446E0E7024B13B1024800F005B8704731
:10134C000000000061130008002301461A461846ED
:10135C0000F01AB838B5084B084D5B1B9C1007D031
:10136C00043B1D44013C55F804399847002CF9D135
:10137C00BDE8384000F054B874140008701400082C
:10138C00704700BF704700BF2DE9F047DFF87CA025
:10139C000646DAF8000098460F469146FFF7F0FF34
:1013AC001B4B1B68D3F8484124B365681F2D26DC02
:1013BC005EB96B1C0235DAF80000636044F82570E6
:1013CC00FFF7E0FF0020BDE8F087012304EB850167
:1013DC00C1F88890D4F88821AB401A43022EC4F887
:1013EC008821C1F80881E4D1D4F88C211343C4F8C6
:1013FC008C31DEE703F5A674C3F84841D5E7DAF87B
:10140C000000FFF7BFFF4FF0FF30DCE7480400207F
:10141C0064140008F8B500BFF8BC08BC9E467047C1
:0C142C00F8B500BFF8BC08BC9E46704735
:10143800000000000000000001020304060708097C
:10144800000000000102030402030405060708095E
:101458000A0B0C0D0E0F10100102000020000020D6
:081468004113000831010008E6
:041470000D01000862
:101474000024F40001000000100000004D110008D9
:10148400C9110008DD110008F11100080000000076
:10149400000000000C03002074030020DC03002083
:1014A4000000000000000000000000000000000038
:1014B4000000000000000000000000000000000028
:1014C4000000000000000000000000000000000018
:1014D4000000000000000000000000000000000008
:1014E40000000000000000000000000000000000F8
:1014F40000000000000000000000000000000000E8
:1015040000000000000000000000000000000000D7
:1015140000000000000000000000000000000000C7
:1015240000000000000000000000000000000000B7
:1015340000000000000000000100000000000000A6
:101544000E33CDAB34126DE6ECDE05000B0000006B
:101554000000000000000000000000000000000087
:101564000000000000000000000000000000000077
:101574000000000000000000000000000000000067
:101584000000000000000000000000000000000057
:0C18B4000000000000000000B404002050
:0400000508001209D4
:00000001FF
